{
  "contractName": "RobotGame",
  "abi": [
    {
      "inputs": [],
      "payable": false,
      "stateMutability": "nonpayable",
      "type": "constructor"
    },
    {
      "constant": true,
      "inputs": [
        {
          "internalType": "uint256",
          "name": "",
          "type": "uint256"
        }
      ],
      "name": "robots",
      "outputs": [
        {
          "internalType": "string",
          "name": "name",
          "type": "string"
        },
        {
          "internalType": "uint256",
          "name": "exp",
          "type": "uint256"
        },
        {
          "internalType": "address",
          "name": "user",
          "type": "address"
        }
      ],
      "payable": false,
      "stateMutability": "view",
      "type": "function"
    },
    {
      "constant": true,
      "inputs": [
        {
          "internalType": "address",
          "name": "",
          "type": "address"
        }
      ],
      "name": "userToRobot",
      "outputs": [
        {
          "internalType": "uint256",
          "name": "",
          "type": "uint256"
        }
      ],
      "payable": false,
      "stateMutability": "view",
      "type": "function"
    },
    {
      "constant": false,
      "inputs": [
        {
          "internalType": "uint8",
          "name": "_newStarterAccount",
          "type": "uint8"
        }
      ],
      "name": "updateStarterAccount",
      "outputs": [],
      "payable": false,
      "stateMutability": "nonpayable",
      "type": "function"
    },
    {
      "constant": false,
      "inputs": [
        {
          "internalType": "uint8",
          "name": "_newBet",
          "type": "uint8"
        }
      ],
      "name": "updateBet",
      "outputs": [],
      "payable": false,
      "stateMutability": "nonpayable",
      "type": "function"
    },
    {
      "constant": false,
      "inputs": [
        {
          "internalType": "uint8",
          "name": "_newBeginnerExp",
          "type": "uint8"
        }
      ],
      "name": "updateBeginnerExp",
      "outputs": [],
      "payable": false,
      "stateMutability": "nonpayable",
      "type": "function"
    },
    {
      "constant": false,
      "inputs": [
        {
          "internalType": "uint8",
          "name": "_newNameCost",
          "type": "uint8"
        }
      ],
      "name": "updateNameCost",
      "outputs": [],
      "payable": false,
      "stateMutability": "nonpayable",
      "type": "function"
    },
    {
      "constant": false,
      "inputs": [
        {
          "internalType": "address",
          "name": "_newOwner",
          "type": "address"
        }
      ],
      "name": "updateOwner",
      "outputs": [],
      "payable": false,
      "stateMutability": "nonpayable",
      "type": "function"
    },
    {
      "constant": true,
      "inputs": [],
      "name": "balance",
      "outputs": [
        {
          "internalType": "int256",
          "name": "",
          "type": "int256"
        }
      ],
      "payable": false,
      "stateMutability": "view",
      "type": "function"
    },
    {
      "constant": false,
      "inputs": [
        {
          "internalType": "string",
          "name": "_newName",
          "type": "string"
        }
      ],
      "name": "changeRobotName",
      "outputs": [],
      "payable": false,
      "stateMutability": "nonpayable",
      "type": "function"
    }
  ],
  "bytecode": "0x608060405260fa600360146101000a81548160ff021916908360ff1602179055506032600360156101000a81548160ff021916908360ff160217905550600a600360166101000a81548160ff021916908360ff160217905550600a600360176101000a81548160ff021916908360ff16021790555034801561008057600080fd5b5033600360006101000a81548173ffffffffffffffffffffffffffffffffffffffff021916908373ffffffffffffffffffffffffffffffffffffffff160217905550610e8f806100d16000396000f3fe608060405234801561001057600080fd5b50600436106100935760003560e01c80639e266827116100665780639e26682714610196578063a03937c5146101c7578063b69ef8a8146102a8578063c7d2cf03146102c6578063ea3ac345146102f757610093565b806309d43aec146100985780631580c1c7146100c957806362aef683146100fa578063880cdc3114610152575b600080fd5b6100c7600480360360208110156100ae57600080fd5b81019080803560ff169060200190929190505050610370565b005b6100f8600480360360208110156100df57600080fd5b81019080803560ff169060200190929190505050610451565b005b61013c6004803603602081101561011057600080fd5b81019080803573ffffffffffffffffffffffffffffffffffffffff169060200190929190505050610532565b6040518082815260200191505060405180910390f35b6101946004803603602081101561016857600080fd5b81019080803573ffffffffffffffffffffffffffffffffffffffff16906020019092919050505061054a565b005b6101c5600480360360208110156101ac57600080fd5b81019080803560ff169060200190929190505050610651565b005b6101f3600480360360208110156101dd57600080fd5b8101908080359060200190929190505050610732565b60405180806020018481526020018373ffffffffffffffffffffffffffffffffffffffff1673ffffffffffffffffffffffffffffffffffffffff168152602001828103825285818151815260200191508051906020019080838360005b8381101561026b578082015181840152602081019050610250565b50505050905090810190601f1680156102985780820380516001836020036101000a031916815260200191505b5094505050505060405180910390f35b6102b0610821565b6040518082815260200191505060405180910390f35b6102f5600480360360208110156102dc57600080fd5b81019080803560ff1690602001909291905050506108e3565b005b61036e6004803603602081101561030d57600080fd5b810190808035906020019064010000000081111561032a57600080fd5b82018360208201111561033c57600080fd5b8035906020019184600183028401116401000000008311171561035e57600080fd5b90919293919293905050506109c4565b005b3373ffffffffffffffffffffffffffffffffffffffff16600360009054906101000a900473ffffffffffffffffffffffffffffffffffffffff1673ffffffffffffffffffffffffffffffffffffffff1614610433576040517f08c379a00000000000000000000000000000000000000000000000000000000081526004018080602001828103825260158152602001807f54686973206973206e6f7420746865206f776e6572000000000000000000000081525060200191505060405180910390fd5b80600360156101000a81548160ff021916908360ff16021790555050565b3373ffffffffffffffffffffffffffffffffffffffff16600360009054906101000a900473ffffffffffffffffffffffffffffffffffffffff1673ffffffffffffffffffffffffffffffffffffffff1614610514576040517f08c379a00000000000000000000000000000000000000000000000000000000081526004018080602001828103825260158152602001807f54686973206973206e6f7420746865206f776e6572000000000000000000000081525060200191505060405180910390fd5b80600360176101000a81548160ff021916908360ff16021790555050565b60016020528060005260406000206000915090505481565b3373ffffffffffffffffffffffffffffffffffffffff16600360009054906101000a900473ffffffffffffffffffffffffffffffffffffffff1673ffffffffffffffffffffffffffffffffffffffff161461060d576040517f08c379a00000000000000000000000000000000000000000000000000000000081526004018080602001828103825260158152602001807f54686973206973206e6f7420746865206f776e6572000000000000000000000081525060200191505060405180910390fd5b80600360006101000a81548173ffffffffffffffffffffffffffffffffffffffff021916908373ffffffffffffffffffffffffffffffffffffffff16021790555050565b3373ffffffffffffffffffffffffffffffffffffffff16600360009054906101000a900473ffffffffffffffffffffffffffffffffffffffff1673ffffffffffffffffffffffffffffffffffffffff1614610714576040517f08c379a00000000000000000000000000000000000000000000000000000000081526004018080602001828103825260158152602001807f54686973206973206e6f7420746865206f776e6572000000000000000000000081525060200191505060405180910390fd5b80600360166101000a81548160ff021916908360ff16021790555050565b6000818154811061073f57fe5b9060005260206000209060030201600091509050806000018054600181600116156101000203166002900480601f0160208091040260200160405190810160405280929190818152602001828054600181600116156101000203166002900480156107eb5780601f106107c0576101008083540402835291602001916107eb565b820191906000526020600020905b8154815290600101906020018083116107ce57829003601f168201915b5050505050908060010154908060020160009054906101000a900473ffffffffffffffffffffffffffffffffffffffff16905083565b600061082c33610d1c565b61089e576040517f08c379a000000000000000000000000000000000000000000000000000000000815260040180806020018281038252601b8152602001807f4c652073656e646572206e27612070617320646520636f6d707465000000000081525060200191505060405180910390fd5b600260003373ffffffffffffffffffffffffffffffffffffffff1673ffffffffffffffffffffffffffffffffffffffff16815260200190815260200160002054905090565b3373ffffffffffffffffffffffffffffffffffffffff16600360009054906101000a900473ffffffffffffffffffffffffffffffffffffffff1673ffffffffffffffffffffffffffffffffffffffff16146109a6576040517f08c379a00000000000000000000000000000000000000000000000000000000081526004018080602001828103825260158152602001807f54686973206973206e6f7420746865206f776e6572000000000000000000000081525060200191505060405180910390fd5b80600360146101000a81548160ff021916908360ff16021790555050565b6109cd33610d1c565b610a3f576040517f08c379a000000000000000000000000000000000000000000000000000000000815260040180806020018281038252601b8152602001807f4c652073656e646572206e27612070617320646520636f6d707465000000000081525060200191505060405180910390fd5b600360169054906101000a900460ff1660ff16600260003373ffffffffffffffffffffffffffffffffffffffff1673ffffffffffffffffffffffffffffffffffffffff1681526020019081526020016000205413610ae8576040517f08c379a0000000000000000000000000000000000000000000000000000000008152600401808060200182810382526026815260200180610e0d6026913960400191505060405180910390fd5b6000600160003373ffffffffffffffffffffffffffffffffffffffff1673ffffffffffffffffffffffffffffffffffffffff1681526020019081526020016000205490506000806001830381548110610b3d57fe5b90600052602060002090600302019050838360405160200180806020018281038252848482818152602001925080828437600081840152601f19601f820116905080830192505050935050505060405160208183030381529060405280519060200120816000016040516020018080602001828103825283818154600181600116156101000203166002900481526020019150805460018160011615610100020316600290048015610c305780601f10610c0557610100808354040283529160200191610c30565b820191906000526020600020905b815481529060010190602001808311610c1357829003601f168201915b505092505050604051602081830303815290604052805190602001201415610ca3576040517f08c379a0000000000000000000000000000000000000000000000000000000008152600401808060200182810382526028815260200180610e336028913960400191505060405180910390fd5b8383826000019190610cb6929190610d67565b50600360169054906101000a900460ff1660ff16600260003373ffffffffffffffffffffffffffffffffffffffff1673ffffffffffffffffffffffffffffffffffffffff1681526020019081526020016000206000828254039250508190555050505050565b600080600160008473ffffffffffffffffffffffffffffffffffffffff1673ffffffffffffffffffffffffffffffffffffffff16815260200190815260200160002054119050919050565b828054600181600116156101000203166002900490600052602060002090601f016020900481019282601f10610da857803560ff1916838001178555610dd6565b82800160010185558215610dd6579182015b82811115610dd5578235825591602001919060010190610dba565b5b509050610de39190610de7565b5090565b610e0991905b80821115610e05576000816000905550600101610ded565b5090565b9056fe50617320617373657a206427617267656e7420706f7572206368616e676572206465206e6f6d4c65206e6f7576656175206e6f6d20657374206c65206dc3aa6d6520717565206c27616e6369656ea265627a7a72315820b18c8607adedfe12684c5272855a3c78b87c456866890618842916946e2060cc64736f6c634300050c0032",
  "source": "pragma solidity ^0.5.0;\n\n\ncontract RobotGame {\n\n  Robot[] public robots; // public: visible en dehors du smartcontract\n\n  mapping(address => uint) public userToRobot; // mapping entre l'utilisateur et l'id du robot. non signé: entier >=0\n  mapping(address => int) bank; // mapping entre l'utilisateur et son compte entier signé: négatif ou positif\n\n  // Settings\n  address owner; // adresse du détenteur du smartcontract\n  uint8 starterAccount = 250; // montant du compte d'un nouveau joueur\n  uint8 bet = 50; // montant d'un pari\n  uint8 nameCost = 10; // montant que l'on paie pour changer de nom de robot\n  uint8 beginnerExp = 10; // expérience d'un robot venant d'être livré\n\n\n  modifier onlyOwner {\n    require(owner == msg.sender, \"This is not the owner\");\n    _;\n  }\n\n  // modifie le compte de départ\n  function updateStarterAccount(uint8 _newStarterAccount) external onlyOwner {\n    starterAccount = _newStarterAccount;\n  }\n\n  // modifie le montant des mises\n  function updateBet(uint8 _newBet) external onlyOwner {\n    bet = _newBet;\n  }\n\n  // modifie l'xp de départ d'un robot\n  function updateBeginnerExp(uint8 _newBeginnerExp) external onlyOwner {\n    beginnerExp = _newBeginnerExp;\n  }\n\n  // modifie le cout de changement du nom de robot\n  function updateNameCost(uint8 _newNameCost) external onlyOwner {\n    nameCost = _newNameCost;\n  }\n\n  // modifie le proprietaire du smart contract\n  function updateOwner(address _newOwner) external onlyOwner {\n    owner = _newOwner;\n  }\n\n  // permet de savoir si un user a un robot dans le jeu\n  // l'ID d'un robot commence >=1: 0 signifie jms réinitialisé\n  function _haveAccount(address _user) internal view returns (bool) {\n    return userToRobot[_user] > 0;\n  }\n\n  modifier requireAccount {\n    require(_haveAccount(msg.sender), \"Le sender n'a pas de compte\");\n    _;\n  }\n\n  // savoir combien le joueur a en banque\n  function balance() external view requireAccount returns (int){\n    return bank[msg.sender];\n  }\n\n  // modifie le nom d'un robot\n  function changeRobotName(string calldata _newName) external requireAccount{\n    require(bank[msg.sender]>nameCost, \"Pas assez d'argent pour changer de nom\");\n\n    uint robotId = userToRobot[msg.sender];\n    Robot storage hisRobot = robots[robotId-1];\n\n    require(keccak256(abi.encode(hisRobot.name)) != keccak256(abi.encode(_newName)), \"Le nouveau nom est le même que l'ancien\");\n    hisRobot.name = _newName;\n    bank[msg.sender] -= nameCost;\n  }\n\n\n\n  struct Robot {\n    string name;\n    uint exp;\n    address user; // maitre du robot\n  }\n\n  // fonction executée lorsque le smart contract est déployé\n  constructor() public {\n    owner = msg.sender; // msg: variable injectée par Ethereum. sender: adresse du compte qui appelle la méthode\n  }\n\n}\n",
  "sourcePath": "/Users/samy/Documents/projects/robot_fight/contracts/RobotGame.sol",
  "compiler": {
    "name": "solc",
    "version": "0.5.12+commit.7709ece9.Emscripten.clang"
  },
  "schemaVersion": "3.0.19",
  "updatedAt": "2019-12-16T21:56:43.783Z",
  "devdoc": {
    "methods": {}
  },
  "userdoc": {
    "methods": {}
  }
}